:100000000C9452000C946F000C946F000C946F00D1
:100010000C946F000C946F000C946F000C946F00A4
:100020000C946F000C946F000C946F000C946F0094
:100030000C946F000C946F000C946F000C946F0084
:100040000C9496000C94E0000C946F000C946F00DC
:100050000C946F000C946F000C946F000C946F0064
:100060000C946F000C946F00000000002500280025
:100070002B0000000000240027002A0004040404D0
:100080000404040402020202020203030303030342
:10009000010204081020408001020408102001021F
:1000A0000408102011241FBECFEFD8E0DEBFCDBF63
:1000B00011E0A0E0B1E0E8EEF3E002C005900D929F
:1000C000A230B107D9F721E0A2E0B1E001C01D9252
:1000D000A631B207E1F70E9431010C94EF010C94B4
:1000E00000003FB7F8948091100190911101A09108
:1000F0001201B091130126B5A89B05C02F3F19F03E
:100100000196A11DB11D3FBFBA2FA92F982F882797
:10011000820F911DA11DB11DBC01CD0143E0660FF1
:10012000771F881F991F4A95D1F708951F920F9244
:100130000FB60F9211242F933F938F939F93AF93FA
:10014000BF9380910C0190910D01A0910E01B0918F
:100150000F0130910B0126E0230F2D3720F402967A
:10016000A11DB11D05C029E8230F0396A11DB11DD6
:1001700020930B0180930C0190930D01A0930E012D
:10018000B0930F018091100190911101A091120183
:10019000B09113010196A11DB11D809310019093A0
:1001A0001101A0931201B0931301BF91AF919F91E0
:1001B0008F913F912F910F900FBE0F901F90189528
:1001C0001F920F920FB60F9211248F939F93EF936C
:1001D000FF938EB58130D1F4809114019091150177
:1001E000909304018093030110920601109205017F
:1001F000109208011092070110920A011092090151
:10020000109201011092000184E60FC081110CC010
:10021000809100019091010197FD06C0809100013D
:100220009091010108971CF085E68EBD11C0E09108
:100230000001F0910101EE5FFE4F81818EBD809142
:1002400000019091010101969093010180930001BA
:10025000FF91EF919F918F910F900FBE0F901F9084
:100260001895789484B5826084BD84B5816084BD1E
:1002700085B5826085BD85B5816085BD80916E0044
:10028000816080936E001092810080918100826075
:1002900080938100809181008160809381008091B2
:1002A00080008160809380008091B10084608093A1
:1002B000B1008091B00081608093B00080917A009D
:1002C000846080937A0080917A00826080937A00C3
:1002D00080917A00816080937A0080917A008068B2
:1002E00080937A001092C100E3EAF0E02491EFE8F5
:1002F000F0E084918823C1F090E0880F991FFC0101
:10030000EE58FF4FC591D491FC01E859FF4FA591DC
:10031000B4919FB7F8948881E22FE0958E2388836B
:100320008C91E823EC939FBFECE9F0E02491E8E89E
:10033000F0E08491882399F090E0880F991FFC01E8
:10034000EE58FF4FA591B491FC01E859FF4F8591FC
:1003500094918FB7F894EC91E22BEC938FBF8CB50E
:1003600080648CBD8CB580688CBD00E010E095E4A5
:10037000B92EB0927C0080917A00806480937A00DC
:1003800080917A0086FDFCCF8091780020917900E1
:1003900090E0922B90931501809314010E947100BC
:1003A000EB018AE0C82ED12CE12CF12C0E947100C7
:1003B0006C1B7D0B683E7340C8F381E0C81AD108FE
:1003C000E108F108C851DC4FC114D104E104F10483
:1003D00069F70115110569F20E940000CACFF8946F
:0803E0000C94F201F894FFCF28
:0203E800FFFF15
:00000001FF
