:100000000C9453000C9455030C94F2020C947B0056
:100010000C947B000C94B8030C947B000C947B0034
:100020000C947B000C947B000C947B000C94E802F5
:100030000C94DD020C944E020C947B000C947B001B
:100040000C94F1000C943B010C947B000C947B000D
:100050000C947B000C947B000C947B000C947B0034
:100060000C947B000C947B0000000000250028000D
:100070002B0000000000240027002A0004040404D0
:100080000404040402020202020203030303030342
:10009000010204081020408001020408102001021F
:1000A00004081020D40411241FBECFEFD8E0DEBF17
:1000B000CDBF11E0A0E0B1E0E0E3FAE002C00590BE
:1000C0000D92AE30B107D9F721E0AEE0B1E001C04A
:1000D0001D92A034B207E1F710E0C3E5D0E004C000
:1000E0002197FE010E941005C235D107C9F70E9471
:1000F0002F040C94E5040C940000CF93DF9390E060
:10010000FC01E057FF4F2491FC01E458FF4F84911C
:10011000882361F190E0880F991FFC01EE58FF4F92
:10012000C591D491FC01E859FF4FA591B49161119B
:1001300009C09FB7F8948881209582238883EC9129
:100140002E230BC0623061F49FB7F8948881322F60
:10015000309583238883EC912E2B2C939FBF06C070
:100160008FB7F894E8812E2B28838FBFDF91CF9132
:1001700008950F931F93AB01BC012091840030912F
:10018000850080911C0190911D01A0911E01B091EC
:100190001F01820F931FA11DB11D84179507A6078C
:1001A000B70728F48A52924CAF4FBF4F0FC08A0155
:1001B0009B010A52124C2F4F3F4F081719072A076D
:1001C0003B0720F4865D9D43A109B1098C019D0187
:1001D000041B150B260B370BC901B8011F910F919A
:1001E00008951F920F920FB60F9211242F933F93F1
:1001F0008F939F93AF93BF9380913B0190913C016C
:10020000A0913D01B0913E0130913A0126E0230FCB
:100210002D3720F40296A11DB11D05C029E8230F3A
:100220000396A11DB11D20933A0180933B01909349
:100230003C01A0933D01B0933E0180913601909125
:100240003701A0913801B09139010196A11DB11D6E
:100250008093360190933701A0933801B093390110
:10026000BF91AF919F918F913F912F910F900FBEB2
:100270000F901F9018951F920F920FB60F92112496
:100280002F933F934F935F938F939F93EF93FF939E
:100290008EB520910801309109012F3F9FEF39075A
:1002A000F9F4843138F4813168F48130C9F421E003
:1002B00030E00EC0843189F0853191F481E0809383
:1002C0003F0148C090913F01992311F0282F30E061
:1002D000309309012093080103C010923F013AC0F6
:1002E00020910801309109012130310509F04BC0FE
:1002F000813091F580910A0190910B019093290131
:100300008093280180910C0190910D0190932B0115
:1003100080932A01809132019091330190932D01B5
:1003200080932C01809134019091350190932F019D
:1003300080932E01109227011092260180912401B2
:100340008093300180913F01809331011092070129
:100350001092060184E694C081110CC080910601C0
:100360009091070197FD06C08091060190910701C9
:100370000C97E4F185E68EBD8FEF9FEF9093090116
:100380008093080140C02091080130910901233178
:10039000310519F520910601309107012F3F3F4F9C
:1003A00029F4109207011092060115C02091060150
:1003B0003091070137FD08C02091060130910701F7
:1003C000243031050CF44CC0209106013091070116
:1003D00024303105E9F01EBC54C08AEA8EBD8FEF8F
:1003E0009FEF90930901809308014BC0E0910601B3
:1003F000F0910701EB5DFE4F81818EBD809106017A
:10040000909107010196909307018093060139C0EE
:100410008F3F09F7209121018091200130E0322F98
:100420002227280F311D809123014091220190E065
:10043000982F8827840F911D30930B0120930A0178
:1004400090930D0180930C018FEF9FEF9093090122
:1004500080930801909307018093060183E110C007
:100460002091060130910701A9014F5F5F4F509322
:10047000070140930601F901E05EFE4F8083ABCF98
:100480008EBDFF91EF919F918F915F914F913F9121
:100490002F910F900FBE0F901F9018951F920F92E3
:1004A0000FB60F9211242F933F938F939F93AF9387
:1004B000BF93CF93DF9300D0CDB7DEB7F894289ADF
:1004C00080911C0190911D01A0911E01B0911F010E
:1004D0008A52924CAF4FBF4F80931C0190931D01E5
:1004E000A0931E01B0931F01809124018F5F809320
:1004F000240180910C0190910D01883E934060F0A1
:1005000080910C0190910D01813D974040F48091C4
:100510000C0190910D0105C088EE93E002C080EDC2
:1005200097E090933501809334018091340190914C
:10053000350190938B0080938A0080910A019091FD
:100540000B019A83898329813A81809104019091DA
:100550000501281739078CF029813A818091020121
:1005600090910301821793072CF4809102019091DE
:10057000030107C089819A8104C080910401909190
:100580000501909333018093320180913201909163
:100590003301909389008093880078940F900F9096
:1005A000DF91CF91BF91AF919F918F913F912F910B
:1005B0000F900FBE0F901F9018951F920F920FB6BD
:1005C0000F92112428980F900FBE0F901F9018952E
:1005D0001F920F920FB60F9211240F900FBE0F9023
:1005E0001F9018951F920F920FB60F9211242F9300
:1005F0003F934F935F936F937F938F939F93AF93AB
:10060000BF93EF93FF934B9B19C0209184003091CF
:10061000850080911C0190911D01A0911E01B09157
:100620001F01820F931FA11DB11D8093180190938C
:100630001901A0931A01B0931B0126C080911801E3
:1006400090911901A0911A01B0911B01892B8A2B5D
:100650008B2BD1F080913F0181110EC06091180168
:100660007091190180911A0190911B010E94B900AB
:1006700070930D0160930C011092180110921901F2
:1006800010921A0110921B01FF91EF91BF91AF914F
:100690009F918F917F916F915F914F913F912F919A
:1006A0000F900FBE0F901F9018951F920F920FB6CC
:1006B0000F9211242F933F934F935F936F937F93E8
:1006C0008F939F93AF93BF93EF93FF934A9B19C070
:1006D000209184003091850080911C0190911D0132
:1006E000A0911E01B0911F01820F931FA11DB11D8A
:1006F0008093140190931501A0931601B0931701F4
:1007000026C08091140190911501A0911601B0911D
:100710001701892B8A2B8B2BD1F080913F018111FE
:100720000EC0609114017091150180911601909195
:1007300017010E94B90070930B0160930A01109297
:100740001401109215011092160110921701FF91D9
:10075000EF91BF91AF919F918F917F916F915F9139
:100760004F913F912F910F900FBE0F901F901895B2
:100770001F920F920FB60F9211242F933F934F9316
:100780005F936F937F938F939F93AF93BF93EF93F9
:10079000FF93499B19C0209184003091850080917E
:1007A0001C0190911D01A0911E01B0911F01820FAB
:1007B000931FA11DB11D8093100190931101A0936F
:1007C0001201B09313013AC0809110019091110170
:1007D000A0911201B0911301892B8A2B8B2B71F1FF
:1007E000609110017091110180911201909113019B
:1007F0000E94B900CB016A337105ACF06AE370E086
:100800000E94E80470930F0160930E0180910E0125
:1008100090910F01892B81F080910E0190910F0131
:100820004F9750F45F9A109210011092110110929C
:1008300012011092130102C05F98F5CFFF91EF9162
:10084000BF91AF919F918F917F916F915F914F91E8
:100850003F912F910F900FBE0F901F901895789495
:1008600084B5826084BD84B5816084BD85B58260B5
:1008700085BD85B5816085BD80916E008160809366
:100880006E001092810080918100826080938100CF
:1008900080918100816080938100809180008160DF
:1008A000809380008091B10084608093B10080913A
:1008B000B00081608093B00080917A008460809362
:1008C0007A0080917A00826080937A0080917A0029
:1008D000816080937A0080917A00806880937A00AA
:1008E0001092C10061E08CE00E947D008CB58064B4
:1008F0008CBD8CB580688CBD84B1836084B982E87E
:10090000809380008AE18093810086ED9DE390933F
:1009100087008093860082ED95E090938900809314
:1009200088008CED95E090938B0080938A00109264
:1009300085001092840080916F00826080936F0028
:1009400080916F00846080936F0080916F00816060
:1009500080936F0060E083E00E947D0060E082E0B1
:100960000E947D0080913F0181110CC0E89A809126
:100970006900816080936900E99A809169008460D0
:100980008093690080916D00826080936D008091FA
:1009900068008460809368007894C0E0D0E020977D
:1009A000F1F30E940000FBCF80910C0190910D01AA
:1009B000909335018093340180910A0190910B014D
:1009C00090933301809332010895F8940C941605A6
:1009D00097FB072E16F4009407D077FD09D00E94EC
:1009E000FC0407FC05D03EF4909581959F4F089537
:1009F000709561957F4F0895AA1BBB1B51E107C0FD
:100A0000AA1FBB1FA617B70710F0A61BB70B881F9E
:100A1000991F5A95A9F780959095BC01CD0108952D
:100A2000EE0FFF1F0590F491E02D0994F894FFCF8D
:0E0A30000100D007E803FFFFFFFFD205DC0541
:00000001FF
