:100000000C9434000C9451000C9451000C94510049
:100010000C9451000C9425010C9451000C94510047
:100020000C9451000C9451000C9451000C9451000C
:100030000C9451000C9451000C9451000C945100FC
:100040000C9478000C94C2000C9451000C94510054
:100050000C9451000C9451000C9451000C945100DC
:100060000C9451000C94510011241FBECFEFD8E026
:10007000DEBFCDBF11E0A0E0B1E0ECEAF4E002C0E9
:1000800005900D92A230B107D9F721E0A2E0B1E0CE
:1000900001C01D92AC31B207E1F70E9499010C94A6
:1000A00029020C9400003FB7F894809114019091BC
:1000B0001501A0911601B091170126B5A89B05C0A6
:1000C0002F3F19F00196A11DB11D3FBFBA2FA92FD7
:1000D000982F8827820F911DA11DB11DBC01CD0154
:1000E00043E0660F771F881F991F4A95D1F708953F
:1000F0001F920F920FB60F9211242F933F938F935D
:100100009F93AF93BF938091100190911101A091A3
:100110001201B091130130910F0126E0230F2D370A
:1001200020F40296A11DB11D05C029E8230F0396F6
:10013000A11DB11D20930F01809310019093110117
:10014000A0931201B09313018091140190911501B5
:10015000A0911601B09117010196A11DB11D8093C8
:10016000140190931501A0931601B0931701BF914C
:10017000AF919F918F913F912F910F900FBE0F9054
:100180001F9018951F920F920FB60F9211245F9334
:100190006F937F938F939F93AF93BF93EF93FF934F
:1001A0008EB5813011F580910D0190910E016AE3B9
:1001B00070E00E942C02709306016093050180910B
:1001C000020190910301909308018093070110921E
:1001D0000A011092090110920C0110920B01109269
:1001E00001011092000184E60FC081110CC08091C2
:1001F00000019091010197FD06C08091000190914E
:10020000010108971CF085E68EBD11C0E091000148
:10021000F0910101EC5FFE4F81818EBD8091000164
:100220009091010101969093010180930001FF914B
:10023000EF91BF91AF919F918F917F916F915F915E
:100240000F900FBE0F901F9018951F920F920FB630
:100250000F9211240F931F932F933F934F935F930C
:100260006F937F938F939F93AF93BF93EF93FF937E
:10027000499B0BC00E9453006093180170931901B1
:1002800080931A0190931B0130C0809118019091C6
:100290001901A0911A01B0911B01892B8A2B8B2B7C
:1002A00021F10E9453000091180110911901209131
:1002B0001A0130911B01601B710B6A3371056CF0E0
:1002C00070930E0160930D018091020190910301E2
:1002D00001969093030180930201109218011092ED
:1002E000190110921A0110921B0180910D01909139
:1002F0000E01181619064CF480910D0190910E0113
:100300008D3C964014F45F9A01C05F98FF91EF9185
:10031000BF91AF919F918F917F916F915F914F911D
:100320003F912F911F910F910F900FBE0F901F9033
:100330001895789484B5826084BD84B5816084BD4D
:1003400085B5826085BD85B5816085BD80916E0073
:10035000816080936E0010928100809181008260A4
:1003600080938100809181008160809381008091E1
:1003700080008160809380008091B10084608093D0
:10038000B1008091B00081608093B00080917A00CC
:10039000846080937A0080917A00826080937A00F2
:1003A00080917A00816080937A0080917A008068E1
:1003B00080937A001092C1003D9A5198579A249ADE
:1003C00080916D00826080936D00809168008460F0
:1003D000809368008CB580648CBD8CB580688CBDC2
:1003E0000FE010E090E0A92E90E0B92E8091180166
:1003F00090911901A0911A01B0911B01892B8A2BB0
:100400008B2B31F44598459AC8010197F1F745982F
:100410000E945300EB018AE0C82ED12CE12CF12C74
:100420000E9453006C1B7D0B683E7340C8F381E053
:10043000C81AD108E108F108C851DC4FC114D10431
:10044000E104F10469F7A114B10481F20E940000F3
:10045000CDCFF8940C94540297FB072E16F4009419
:1004600007D077FD09D00E94400207FC05D03EF47A
:10047000909581959F4F0895709561957F4F089550
:10048000AA1BBB1B51E107C0AA1FBB1FA617B707BA
:1004900010F0A61BB70B881F991F5A95A9F78095D6
:0C04A0009095BC01CD010895F894FFCFA9
:0204AC00FFFF50
:00000001FF
